{
  "address": "0x57FB82f865160022FC1cf5c908b0560FCB6fb146",
  "abi": [
    {
      "inputs": [
        {
          "internalType": "address",
          "name": "vrfCoordinatorV2",
          "type": "address"
        },
        {
          "internalType": "uint64",
          "name": "subscriptionId",
          "type": "uint64"
        },
        {
          "internalType": "bytes32",
          "name": "gasLane",
          "type": "bytes32"
        },
        {
          "internalType": "uint32",
          "name": "callbackGasLimit",
          "type": "uint32"
        },
        {
          "internalType": "string[3]",
          "name": "dogTokenUris",
          "type": "string[3]"
        },
        {
          "internalType": "uint256",
          "name": "mintFee",
          "type": "uint256"
        }
      ],
      "stateMutability": "nonpayable",
      "type": "constructor"
    },
    {
      "inputs": [
        {
          "internalType": "address",
          "name": "have",
          "type": "address"
        },
        {
          "internalType": "address",
          "name": "want",
          "type": "address"
        }
      ],
      "name": "OnlyCoordinatorCanFulfill",
      "type": "error"
    },
    {
      "inputs": [],
      "name": "RandomIpfsNft__NeedMoreETHSent",
      "type": "error"
    },
    {
      "inputs": [],
      "name": "RandomIpfsNft__RangeOutOfBounds",
      "type": "error"
    },
    {
      "inputs": [],
      "name": "RandomIpfsNft__TransferFailed",
      "type": "error"
    },
    {
      "anonymous": false,
      "inputs": [
        {
          "indexed": true,
          "internalType": "address",
          "name": "owner",
          "type": "address"
        },
        {
          "indexed": true,
          "internalType": "address",
          "name": "approved",
          "type": "address"
        },
        {
          "indexed": true,
          "internalType": "uint256",
          "name": "tokenId",
          "type": "uint256"
        }
      ],
      "name": "Approval",
      "type": "event"
    },
    {
      "anonymous": false,
      "inputs": [
        {
          "indexed": true,
          "internalType": "address",
          "name": "owner",
          "type": "address"
        },
        {
          "indexed": true,
          "internalType": "address",
          "name": "operator",
          "type": "address"
        },
        {
          "indexed": false,
          "internalType": "bool",
          "name": "approved",
          "type": "bool"
        }
      ],
      "name": "ApprovalForAll",
      "type": "event"
    },
    {
      "anonymous": false,
      "inputs": [
        {
          "indexed": false,
          "internalType": "enum RandomIpfsNft.Breed",
          "name": "dogBreed",
          "type": "uint8"
        },
        {
          "indexed": false,
          "internalType": "address",
          "name": "minter",
          "type": "address"
        }
      ],
      "name": "NftMinted",
      "type": "event"
    },
    {
      "anonymous": false,
      "inputs": [
        {
          "indexed": true,
          "internalType": "uint256",
          "name": "requestId",
          "type": "uint256"
        },
        {
          "indexed": false,
          "internalType": "address",
          "name": "requester",
          "type": "address"
        }
      ],
      "name": "NftRequested",
      "type": "event"
    },
    {
      "anonymous": false,
      "inputs": [
        {
          "indexed": true,
          "internalType": "address",
          "name": "from",
          "type": "address"
        },
        {
          "indexed": true,
          "internalType": "address",
          "name": "to",
          "type": "address"
        }
      ],
      "name": "OwnershipTransferRequested",
      "type": "event"
    },
    {
      "anonymous": false,
      "inputs": [
        {
          "indexed": true,
          "internalType": "address",
          "name": "from",
          "type": "address"
        },
        {
          "indexed": true,
          "internalType": "address",
          "name": "to",
          "type": "address"
        }
      ],
      "name": "OwnershipTransferred",
      "type": "event"
    },
    {
      "anonymous": false,
      "inputs": [
        {
          "indexed": true,
          "internalType": "address",
          "name": "from",
          "type": "address"
        },
        {
          "indexed": true,
          "internalType": "address",
          "name": "to",
          "type": "address"
        },
        {
          "indexed": true,
          "internalType": "uint256",
          "name": "tokenId",
          "type": "uint256"
        }
      ],
      "name": "Transfer",
      "type": "event"
    },
    {
      "inputs": [],
      "name": "acceptOwnership",
      "outputs": [],
      "stateMutability": "nonpayable",
      "type": "function"
    },
    {
      "inputs": [
        {
          "internalType": "address",
          "name": "to",
          "type": "address"
        },
        {
          "internalType": "uint256",
          "name": "tokenId",
          "type": "uint256"
        }
      ],
      "name": "approve",
      "outputs": [],
      "stateMutability": "nonpayable",
      "type": "function"
    },
    {
      "inputs": [
        {
          "internalType": "address",
          "name": "owner",
          "type": "address"
        }
      ],
      "name": "balanceOf",
      "outputs": [
        {
          "internalType": "uint256",
          "name": "",
          "type": "uint256"
        }
      ],
      "stateMutability": "view",
      "type": "function"
    },
    {
      "inputs": [
        {
          "internalType": "uint256",
          "name": "tokenId",
          "type": "uint256"
        }
      ],
      "name": "getApproved",
      "outputs": [
        {
          "internalType": "address",
          "name": "",
          "type": "address"
        }
      ],
      "stateMutability": "view",
      "type": "function"
    },
    {
      "inputs": [
        {
          "internalType": "uint256",
          "name": "moddedRng",
          "type": "uint256"
        }
      ],
      "name": "getBreedFromModdedRng",
      "outputs": [
        {
          "internalType": "enum RandomIpfsNft.Breed",
          "name": "",
          "type": "uint8"
        }
      ],
      "stateMutability": "pure",
      "type": "function"
    },
    {
      "inputs": [],
      "name": "getChanceArray",
      "outputs": [
        {
          "internalType": "uint256[3]",
          "name": "",
          "type": "uint256[3]"
        }
      ],
      "stateMutability": "pure",
      "type": "function"
    },
    {
      "inputs": [
        {
          "internalType": "uint256",
          "name": "index",
          "type": "uint256"
        }
      ],
      "name": "getDogTokenUris",
      "outputs": [
        {
          "internalType": "string",
          "name": "",
          "type": "string"
        }
      ],
      "stateMutability": "view",
      "type": "function"
    },
    {
      "inputs": [],
      "name": "getMintFee",
      "outputs": [
        {
          "internalType": "uint256",
          "name": "",
          "type": "uint256"
        }
      ],
      "stateMutability": "view",
      "type": "function"
    },
    {
      "inputs": [],
      "name": "getTokenCounter",
      "outputs": [
        {
          "internalType": "uint256",
          "name": "",
          "type": "uint256"
        }
      ],
      "stateMutability": "view",
      "type": "function"
    },
    {
      "inputs": [
        {
          "internalType": "address",
          "name": "owner",
          "type": "address"
        },
        {
          "internalType": "address",
          "name": "operator",
          "type": "address"
        }
      ],
      "name": "isApprovedForAll",
      "outputs": [
        {
          "internalType": "bool",
          "name": "",
          "type": "bool"
        }
      ],
      "stateMutability": "view",
      "type": "function"
    },
    {
      "inputs": [],
      "name": "name",
      "outputs": [
        {
          "internalType": "string",
          "name": "",
          "type": "string"
        }
      ],
      "stateMutability": "view",
      "type": "function"
    },
    {
      "inputs": [],
      "name": "owner",
      "outputs": [
        {
          "internalType": "address",
          "name": "",
          "type": "address"
        }
      ],
      "stateMutability": "view",
      "type": "function"
    },
    {
      "inputs": [
        {
          "internalType": "uint256",
          "name": "tokenId",
          "type": "uint256"
        }
      ],
      "name": "ownerOf",
      "outputs": [
        {
          "internalType": "address",
          "name": "",
          "type": "address"
        }
      ],
      "stateMutability": "view",
      "type": "function"
    },
    {
      "inputs": [
        {
          "internalType": "uint256",
          "name": "requestId",
          "type": "uint256"
        },
        {
          "internalType": "uint256[]",
          "name": "randomWords",
          "type": "uint256[]"
        }
      ],
      "name": "rawFulfillRandomWords",
      "outputs": [],
      "stateMutability": "nonpayable",
      "type": "function"
    },
    {
      "inputs": [],
      "name": "requestNft",
      "outputs": [
        {
          "internalType": "uint256",
          "name": "requestId",
          "type": "uint256"
        }
      ],
      "stateMutability": "payable",
      "type": "function"
    },
    {
      "inputs": [
        {
          "internalType": "uint256",
          "name": "",
          "type": "uint256"
        }
      ],
      "name": "s_requestIdToSender",
      "outputs": [
        {
          "internalType": "address",
          "name": "",
          "type": "address"
        }
      ],
      "stateMutability": "view",
      "type": "function"
    },
    {
      "inputs": [],
      "name": "s_tokenCounter",
      "outputs": [
        {
          "internalType": "uint256",
          "name": "",
          "type": "uint256"
        }
      ],
      "stateMutability": "view",
      "type": "function"
    },
    {
      "inputs": [
        {
          "internalType": "address",
          "name": "from",
          "type": "address"
        },
        {
          "internalType": "address",
          "name": "to",
          "type": "address"
        },
        {
          "internalType": "uint256",
          "name": "tokenId",
          "type": "uint256"
        }
      ],
      "name": "safeTransferFrom",
      "outputs": [],
      "stateMutability": "nonpayable",
      "type": "function"
    },
    {
      "inputs": [
        {
          "internalType": "address",
          "name": "from",
          "type": "address"
        },
        {
          "internalType": "address",
          "name": "to",
          "type": "address"
        },
        {
          "internalType": "uint256",
          "name": "tokenId",
          "type": "uint256"
        },
        {
          "internalType": "bytes",
          "name": "_data",
          "type": "bytes"
        }
      ],
      "name": "safeTransferFrom",
      "outputs": [],
      "stateMutability": "nonpayable",
      "type": "function"
    },
    {
      "inputs": [
        {
          "internalType": "address",
          "name": "operator",
          "type": "address"
        },
        {
          "internalType": "bool",
          "name": "approved",
          "type": "bool"
        }
      ],
      "name": "setApprovalForAll",
      "outputs": [],
      "stateMutability": "nonpayable",
      "type": "function"
    },
    {
      "inputs": [
        {
          "internalType": "bytes4",
          "name": "interfaceId",
          "type": "bytes4"
        }
      ],
      "name": "supportsInterface",
      "outputs": [
        {
          "internalType": "bool",
          "name": "",
          "type": "bool"
        }
      ],
      "stateMutability": "view",
      "type": "function"
    },
    {
      "inputs": [],
      "name": "symbol",
      "outputs": [
        {
          "internalType": "string",
          "name": "",
          "type": "string"
        }
      ],
      "stateMutability": "view",
      "type": "function"
    },
    {
      "inputs": [
        {
          "internalType": "uint256",
          "name": "tokenId",
          "type": "uint256"
        }
      ],
      "name": "tokenURI",
      "outputs": [
        {
          "internalType": "string",
          "name": "",
          "type": "string"
        }
      ],
      "stateMutability": "view",
      "type": "function"
    },
    {
      "inputs": [
        {
          "internalType": "address",
          "name": "from",
          "type": "address"
        },
        {
          "internalType": "address",
          "name": "to",
          "type": "address"
        },
        {
          "internalType": "uint256",
          "name": "tokenId",
          "type": "uint256"
        }
      ],
      "name": "transferFrom",
      "outputs": [],
      "stateMutability": "nonpayable",
      "type": "function"
    },
    {
      "inputs": [
        {
          "internalType": "address",
          "name": "to",
          "type": "address"
        }
      ],
      "name": "transferOwnership",
      "outputs": [],
      "stateMutability": "nonpayable",
      "type": "function"
    },
    {
      "inputs": [],
      "name": "withdraw",
      "outputs": [],
      "stateMutability": "nonpayable",
      "type": "function"
    }
  ],
  "transactionHash": "0xe1d884514e0be1b854a28cf3197ca94a16677988d9f3910b561653595d342bd3",
  "args": [
    "0x8103B0A8A00be2DDC778e6e7eaa21791Cd364625",
    "4348",
    "0x474e34a077df58807dbe9c96d3c009b23b3c6d0cce433e59bbf5b34f823bc56c",
    "500000",
    [
      "ipfs://QmaVkBn2tKmjbhphU7eyztbvSQU5EXDdqRyXZtRhSGgJGo",
      "ipfs://QmYQC5aGZu2PTH8XzbJrbDnvhj3gVs7ya33H9mqUNvST3d",
      "ipfs://QmZYmH5iDbD6v3U2ixoVAjioSzvWJszDzYdbeCLquGSpVm"
    ],
    "10000000000000000"
  ],
  "numDeployments": 1,
  "solcInputHash": "8c11a4657641a6cd54cc362209495a6e",
  "bytecode": "0x6101406040523480156200001257600080fd5b5060405162004d9d38038062004d9d833981810160405281019062000038919062000893565b338060006040518060400160405280600f81526020017f52616e646f6d2049504653204e465400000000000000000000000000000000008152506040518060400160405280600381526020017f52494e00000000000000000000000000000000000000000000000000000000008152508a8073ffffffffffffffffffffffffffffffffffffffff1660808173ffffffffffffffffffffffffffffffffffffffff1681525050508160009081620000ef919062000b8f565b50806001908162000101919062000b8f565b505050600073ffffffffffffffffffffffffffffffffffffffff168273ffffffffffffffffffffffffffffffffffffffff160362000176576040517f08c379a00000000000000000000000000000000000000000000000000000000081526004016200016d9062000cd7565b60405180910390fd5b81600760006101000a81548173ffffffffffffffffffffffffffffffffffffffff021916908373ffffffffffffffffffffffffffffffffffffffff160217905550600073ffffffffffffffffffffffffffffffffffffffff168173ffffffffffffffffffffffffffffffffffffffff1614620001fe57620001fd816200029760201b60201c565b5b5050508573ffffffffffffffffffffffffffffffffffffffff1660a08173ffffffffffffffffffffffffffffffffffffffff16815250508467ffffffffffffffff1660c08167ffffffffffffffff16815250508360e081815250508263ffffffff166101008163ffffffff168152505081600b90600362000281929190620003c8565b5080610120818152505050505050505062000d6b565b3373ffffffffffffffffffffffffffffffffffffffff168173ffffffffffffffffffffffffffffffffffffffff160362000308576040517f08c379a0000000000000000000000000000000000000000000000000000000008152600401620002ff9062000d49565b60405180910390fd5b80600860006101000a81548173ffffffffffffffffffffffffffffffffffffffff021916908373ffffffffffffffffffffffffffffffffffffffff1602179055508073ffffffffffffffffffffffffffffffffffffffff16600760009054906101000a900473ffffffffffffffffffffffffffffffffffffffff1673ffffffffffffffffffffffffffffffffffffffff167fed8889f560326eb138920d842192f0eb3dd22b4f139c87a2c57538e05bae127860405160405180910390a350565b82805482825590600052602060002090810192821562000415579160200282015b828111156200041457825182908162000403919062000b8f565b5091602001919060010190620003e9565b5b50905062000424919062000428565b5090565b5b808211156200044c576000818162000442919062000450565b5060010162000429565b5090565b5080546200045e9062000988565b6000825580601f1062000472575062000493565b601f01602090049060005260206000209081019062000492919062000496565b5b50565b5b80821115620004b157600081600090555060010162000497565b5090565b6000604051905090565b600080fd5b600080fd5b600073ffffffffffffffffffffffffffffffffffffffff82169050919050565b6000620004f682620004c9565b9050919050565b6200050881620004e9565b81146200051457600080fd5b50565b6000815190506200052881620004fd565b92915050565b600067ffffffffffffffff82169050919050565b6200054d816200052e565b81146200055957600080fd5b50565b6000815190506200056d8162000542565b92915050565b6000819050919050565b620005888162000573565b81146200059457600080fd5b50565b600081519050620005a8816200057d565b92915050565b600063ffffffff82169050919050565b620005c981620005ae565b8114620005d557600080fd5b50565b600081519050620005e981620005be565b92915050565b600080fd5b6000601f19601f8301169050919050565b7f4e487b7100000000000000000000000000000000000000000000000000000000600052604160045260246000fd5b6200063f82620005f4565b810181811067ffffffffffffffff8211171562000661576200066062000605565b5b80604052505050565b600062000676620004b5565b905062000684828262000634565b919050565b600067ffffffffffffffff821115620006a757620006a662000605565b5b602082029050919050565b600080fd5b600080fd5b600067ffffffffffffffff821115620006da57620006d962000605565b5b620006e582620005f4565b9050602081019050919050565b60005b8381101562000712578082015181840152602081019050620006f5565b60008484015250505050565b6000620007356200072f84620006bc565b6200066a565b905082815260208101848484011115620007545762000753620006b7565b5b62000761848285620006f2565b509392505050565b600082601f830112620007815762000780620005ef565b5b8151620007938482602086016200071e565b91505092915050565b6000620007b3620007ad8462000689565b6200066a565b90508060208402830185811115620007d057620007cf620006b2565b5b835b818110156200081e57805167ffffffffffffffff811115620007f957620007f8620005ef565b5b80860162000808898262000769565b85526020850194505050602081019050620007d2565b5050509392505050565b600082601f83011262000840576200083f620005ef565b5b60036200084f8482856200079c565b91505092915050565b6000819050919050565b6200086d8162000858565b81146200087957600080fd5b50565b6000815190506200088d8162000862565b92915050565b60008060008060008060c08789031215620008b357620008b2620004bf565b5b6000620008c389828a0162000517565b9650506020620008d689828a016200055c565b9550506040620008e989828a0162000597565b9450506060620008fc89828a01620005d8565b935050608087015167ffffffffffffffff81111562000920576200091f620004c4565b5b6200092e89828a0162000828565b92505060a06200094189828a016200087c565b9150509295509295509295565b600081519050919050565b7f4e487b7100000000000000000000000000000000000000000000000000000000600052602260045260246000fd5b60006002820490506001821680620009a157607f821691505b602082108103620009b757620009b662000959565b5b50919050565b60008190508160005260206000209050919050565b60006020601f8301049050919050565b600082821b905092915050565b60006008830262000a217fffffffffffffffffffffffffffffffffffffffffffffffffffffffffffffffff82620009e2565b62000a2d8683620009e2565b95508019841693508086168417925050509392505050565b6000819050919050565b600062000a7062000a6a62000a648462000858565b62000a45565b62000858565b9050919050565b6000819050919050565b62000a8c8362000a4f565b62000aa462000a9b8262000a77565b848454620009ef565b825550505050565b600090565b62000abb62000aac565b62000ac881848462000a81565b505050565b5b8181101562000af05762000ae460008262000ab1565b60018101905062000ace565b5050565b601f82111562000b3f5762000b0981620009bd565b62000b1484620009d2565b8101602085101562000b24578190505b62000b3c62000b3385620009d2565b83018262000acd565b50505b505050565b600082821c905092915050565b600062000b646000198460080262000b44565b1980831691505092915050565b600062000b7f838362000b51565b9150826002028217905092915050565b62000b9a826200094e565b67ffffffffffffffff81111562000bb65762000bb562000605565b5b62000bc2825462000988565b62000bcf82828562000af4565b600060209050601f83116001811462000c07576000841562000bf2578287015190505b62000bfe858262000b71565b86555062000c6e565b601f19841662000c1786620009bd565b60005b8281101562000c415784890151825560018201915060208501945060208101905062000c1a565b8683101562000c61578489015162000c5d601f89168262000b51565b8355505b6001600288020188555050505b505050505050565b600082825260208201905092915050565b7f43616e6e6f7420736574206f776e657220746f207a65726f0000000000000000600082015250565b600062000cbf60188362000c76565b915062000ccc8262000c87565b602082019050919050565b6000602082019050818103600083015262000cf28162000cb0565b9050919050565b7f43616e6e6f74207472616e7366657220746f2073656c66000000000000000000600082015250565b600062000d3160178362000c76565b915062000d3e8262000cf9565b602082019050919050565b6000602082019050818103600083015262000d648162000d22565b9050919050565b60805160a05160c05160e0516101005161012051613fd462000dc960003960008181610f3501526112ae0152600061138801526000611344015260006113650152600061130801526000818161095b01526109af0152613fd46000f3fe6080604052600436106101815760003560e01c806370a08231116100d1578063a36f573b1161008a578063b88d4fde11610064578063b88d4fde14610577578063c87b56dd146105a0578063e985e9c5146105dd578063f2fde38b1461061a57610181565b8063a36f573b146104df578063a51cccf31461051c578063aa1524911461055957610181565b806370a08231146103e157806379ba50971461041e5780637a5caab3146104355780638da5cb5b1461046057806395d89b411461048b578063a22cb465146104b657610181565b806323b872dd1161013e57806342842e0e1161011857806342842e0e146103255780635dacf5f41461034e5780636352211e146103795780636e02007d146103b657610181565b806323b872dd146102a85780633af25975146102d15780633ccfd60b1461030e57610181565b806301ffc9a71461018657806306fdde03146101c3578063081812fc146101ee578063095ea7b31461022b5780630b21a83b146102545780631fe543e31461027f575b600080fd5b34801561019257600080fd5b506101ad60048036038101906101a8919061267d565b610643565b6040516101ba91906126c5565b60405180910390f35b3480156101cf57600080fd5b506101d8610725565b6040516101e59190612770565b60405180910390f35b3480156101fa57600080fd5b50610215600480360381019061021091906127c8565b6107b7565b6040516102229190612836565b60405180910390f35b34801561023757600080fd5b50610252600480360381019061024d919061287d565b61083c565b005b34801561026057600080fd5b50610269610953565b60405161027691906128cc565b60405180910390f35b34801561028b57600080fd5b506102a660048036038101906102a19190612a2f565b610959565b005b3480156102b457600080fd5b506102cf60048036038101906102ca9190612a8b565b610a19565b005b3480156102dd57600080fd5b506102f860048036038101906102f391906127c8565b610a79565b6040516103059190612770565b60405180910390f35b34801561031a57600080fd5b50610323610b29565b005b34801561033157600080fd5b5061034c60048036038101906103479190612a8b565b610bdd565b005b34801561035a57600080fd5b50610363610bfd565b6040516103709190612b89565b60405180910390f35b34801561038557600080fd5b506103a0600480360381019061039b91906127c8565b610c28565b6040516103ad9190612836565b60405180910390f35b3480156103c257600080fd5b506103cb610cd9565b6040516103d891906128cc565b60405180910390f35b3480156103ed57600080fd5b5061040860048036038101906104039190612ba4565b610ce3565b60405161041591906128cc565b60405180910390f35b34801561042a57600080fd5b50610433610d9a565b005b34801561044157600080fd5b5061044a610f31565b60405161045791906128cc565b60405180910390f35b34801561046c57600080fd5b50610475610f59565b6040516104829190612836565b60405180910390f35b34801561049757600080fd5b506104a0610f83565b6040516104ad9190612770565b60405180910390f35b3480156104c257600080fd5b506104dd60048036038101906104d89190612bfd565b611015565b005b3480156104eb57600080fd5b50610506600480360381019061050191906127c8565b611195565b6040516105139190612836565b60405180910390f35b34801561052857600080fd5b50610543600480360381019061053e91906127c8565b6111c8565b6040516105509190612cb4565b60405180910390f35b6105616112aa565b60405161056e91906128cc565b60405180910390f35b34801561058357600080fd5b5061059e60048036038101906105999190612d84565b61149b565b005b3480156105ac57600080fd5b506105c760048036038101906105c291906127c8565b6114fd565b6040516105d49190612770565b60405180910390f35b3480156105e957600080fd5b5061060460048036038101906105ff9190612e07565b61164e565b60405161061191906126c5565b60405180910390f35b34801561062657600080fd5b50610641600480360381019061063c9190612ba4565b6116e2565b005b60007f80ac58cd000000000000000000000000000000000000000000000000000000007bffffffffffffffffffffffffffffffffffffffffffffffffffffffff1916827bffffffffffffffffffffffffffffffffffffffffffffffffffffffff1916148061070e57507f5b5e139f000000000000000000000000000000000000000000000000000000007bffffffffffffffffffffffffffffffffffffffffffffffffffffffff1916827bffffffffffffffffffffffffffffffffffffffffffffffffffffffff1916145b8061071e575061071d826116f6565b5b9050919050565b60606000805461073490612e76565b80601f016020809104026020016040519081016040528092919081815260200182805461076090612e76565b80156107ad5780601f10610782576101008083540402835291602001916107ad565b820191906000526020600020905b81548152906001019060200180831161079057829003601f168201915b5050505050905090565b60006107c282611760565b610801576040517f08c379a00000000000000000000000000000000000000000000000000000000081526004016107f890612f19565b60405180910390fd5b6004600083815260200190815260200160002060009054906101000a900473ffffffffffffffffffffffffffffffffffffffff169050919050565b600061084782610c28565b90508073ffffffffffffffffffffffffffffffffffffffff168373ffffffffffffffffffffffffffffffffffffffff16036108b7576040517f08c379a00000000000000000000000000000000000000000000000000000000081526004016108ae90612fab565b60405180910390fd5b8073ffffffffffffffffffffffffffffffffffffffff166108d66117cc565b73ffffffffffffffffffffffffffffffffffffffff1614806109055750610904816108ff6117cc565b61164e565b5b610944576040517f08c379a000000000000000000000000000000000000000000000000000000000815260040161093b9061303d565b60405180910390fd5b61094e83836117d4565b505050565b600a5481565b7f000000000000000000000000000000000000000000000000000000000000000073ffffffffffffffffffffffffffffffffffffffff163373ffffffffffffffffffffffffffffffffffffffff1614610a0b57337f00000000000000000000000000000000000000000000000000000000000000006040517f1cf993f4000000000000000000000000000000000000000000000000000000008152600401610a0292919061305d565b60405180910390fd5b610a15828261188d565b5050565b610a2a610a246117cc565b82611a2a565b610a69576040517f08c379a0000000000000000000000000000000000000000000000000000000008152600401610a60906130f8565b60405180910390fd5b610a74838383611b08565b505050565b6060600b8281548110610a8f57610a8e613118565b5b906000526020600020018054610aa490612e76565b80601f0160208091040260200160405190810160405280929190818152602001828054610ad090612e76565b8015610b1d5780601f10610af257610100808354040283529160200191610b1d565b820191906000526020600020905b815481529060010190602001808311610b0057829003601f168201915b50505050509050919050565b610b31611d63565b600047905060003373ffffffffffffffffffffffffffffffffffffffff1682604051610b5c90613178565b60006040518083038185875af1925050503d8060008114610b99576040519150601f19603f3d011682016040523d82523d6000602084013e610b9e565b606091505b5050905080610bd9576040517fca7e25b700000000000000000000000000000000000000000000000000000000815260040160405180910390fd5b5050565b610bf88383836040518060200160405280600081525061149b565b505050565b610c056125ef565b6040518060600160405280600a8152602001601e8152602001603c815250905090565b6000806002600084815260200190815260200160002060009054906101000a900473ffffffffffffffffffffffffffffffffffffffff169050600073ffffffffffffffffffffffffffffffffffffffff168173ffffffffffffffffffffffffffffffffffffffff1603610cd0576040517f08c379a0000000000000000000000000000000000000000000000000000000008152600401610cc7906131ff565b60405180910390fd5b80915050919050565b6000600a54905090565b60008073ffffffffffffffffffffffffffffffffffffffff168273ffffffffffffffffffffffffffffffffffffffff1603610d53576040517f08c379a0000000000000000000000000000000000000000000000000000000008152600401610d4a90613291565b60405180910390fd5b600360008373ffffffffffffffffffffffffffffffffffffffff1673ffffffffffffffffffffffffffffffffffffffff168152602001908152602001600020549050919050565b600860009054906101000a900473ffffffffffffffffffffffffffffffffffffffff1673ffffffffffffffffffffffffffffffffffffffff163373ffffffffffffffffffffffffffffffffffffffff1614610e2a576040517f08c379a0000000000000000000000000000000000000000000000000000000008152600401610e21906132fd565b60405180910390fd5b6000600760009054906101000a900473ffffffffffffffffffffffffffffffffffffffff16905033600760006101000a81548173ffffffffffffffffffffffffffffffffffffffff021916908373ffffffffffffffffffffffffffffffffffffffff1602179055506000600860006101000a81548173ffffffffffffffffffffffffffffffffffffffff021916908373ffffffffffffffffffffffffffffffffffffffff1602179055503373ffffffffffffffffffffffffffffffffffffffff168173ffffffffffffffffffffffffffffffffffffffff167f8be0079c531659141344cd1fd0a4f28419497f9722a3daafe3b4186f6b6457e060405160405180910390a350565b60007f0000000000000000000000000000000000000000000000000000000000000000905090565b6000600760009054906101000a900473ffffffffffffffffffffffffffffffffffffffff16905090565b606060018054610f9290612e76565b80601f0160208091040260200160405190810160405280929190818152602001828054610fbe90612e76565b801561100b5780601f10610fe05761010080835404028352916020019161100b565b820191906000526020600020905b815481529060010190602001808311610fee57829003601f168201915b5050505050905090565b61101d6117cc565b73ffffffffffffffffffffffffffffffffffffffff168273ffffffffffffffffffffffffffffffffffffffff160361108a576040517f08c379a000000000000000000000000000000000000000000000000000000000815260040161108190613369565b60405180910390fd5b80600560006110976117cc565b73ffffffffffffffffffffffffffffffffffffffff1673ffffffffffffffffffffffffffffffffffffffff16815260200190815260200160002060008473ffffffffffffffffffffffffffffffffffffffff1673ffffffffffffffffffffffffffffffffffffffff16815260200190815260200160002060006101000a81548160ff0219169083151502179055508173ffffffffffffffffffffffffffffffffffffffff166111446117cc565b73ffffffffffffffffffffffffffffffffffffffff167f17307eab39ab6107e8899845ad3d59bd9653f200f220920489ca2b5937696c318360405161118991906126c5565b60405180910390a35050565b60096020528060005260406000206000915054906101000a900473ffffffffffffffffffffffffffffffffffffffff1681565b6000806000905060006111d9610bfd565b905060005b600381101561127257828510158015611218575081816003811061120557611204613118565b5b60200201518361121591906133b8565b85105b1561123a578060028111156112305761122f612c3d565b5b93505050506112a5565b81816003811061124d5761124c613118565b5b60200201518361125d91906133b8565b9250808061126a906133ec565b9150506111de565b506040517f12806c9d00000000000000000000000000000000000000000000000000000000815260040160405180910390fd5b919050565b60007f0000000000000000000000000000000000000000000000000000000000000000341015611306576040517fb90f491000000000000000000000000000000000000000000000000000000000815260040160405180910390fd5b7f000000000000000000000000000000000000000000000000000000000000000073ffffffffffffffffffffffffffffffffffffffff16635d3b1d307f00000000000000000000000000000000000000000000000000000000000000007f000000000000000000000000000000000000000000000000000000000000000060037f000000000000000000000000000000000000000000000000000000000000000060016040518663ffffffff1660e01b81526004016113c99594939291906134ac565b6020604051808303816000875af11580156113e8573d6000803e3d6000fd5b505050506040513d601f19601f8201168201806040525081019061140c9190613514565b9050336009600083815260200190815260200160002060006101000a81548173ffffffffffffffffffffffffffffffffffffffff021916908373ffffffffffffffffffffffffffffffffffffffff160217905550807ff873236e6cc0ecc5be1a9a35c95ee5b8d1ac4cc7bfef0cc5060391d6cc98e26b336040516114909190612836565b60405180910390a290565b6114ac6114a66117cc565b83611a2a565b6114eb576040517f08c379a00000000000000000000000000000000000000000000000000000000081526004016114e2906130f8565b60405180910390fd5b6114f784848484611df5565b50505050565b606061150882611760565b611547576040517f08c379a000000000000000000000000000000000000000000000000000000000815260040161153e906135b3565b60405180910390fd5b600060066000848152602001908152602001600020805461156790612e76565b80601f016020809104026020016040519081016040528092919081815260200182805461159390612e76565b80156115e05780601f106115b5576101008083540402835291602001916115e0565b820191906000526020600020905b8154815290600101906020018083116115c357829003601f168201915b5050505050905060006115f1611e51565b90506000815103611606578192505050611649565b60008251111561163b57808260405160200161162392919061360f565b60405160208183030381529060405292505050611649565b61164484611e68565b925050505b919050565b6000600560008473ffffffffffffffffffffffffffffffffffffffff1673ffffffffffffffffffffffffffffffffffffffff16815260200190815260200160002060008373ffffffffffffffffffffffffffffffffffffffff1673ffffffffffffffffffffffffffffffffffffffff16815260200190815260200160002060009054906101000a900460ff16905092915050565b6116ea611d63565b6116f381611f0f565b50565b60007f01ffc9a7000000000000000000000000000000000000000000000000000000007bffffffffffffffffffffffffffffffffffffffffffffffffffffffff1916827bffffffffffffffffffffffffffffffffffffffffffffffffffffffff1916149050919050565b60008073ffffffffffffffffffffffffffffffffffffffff166002600084815260200190815260200160002060009054906101000a900473ffffffffffffffffffffffffffffffffffffffff1673ffffffffffffffffffffffffffffffffffffffff1614159050919050565b600033905090565b816004600083815260200190815260200160002060006101000a81548173ffffffffffffffffffffffffffffffffffffffff021916908373ffffffffffffffffffffffffffffffffffffffff160217905550808273ffffffffffffffffffffffffffffffffffffffff1661184783610c28565b73ffffffffffffffffffffffffffffffffffffffff167f8c5be1e5ebec7d5bd14f71427d1e84f3dd0314c0f7b2291e5b200ac8c7c3b92560405160405180910390a45050565b60006009600084815260200190815260200160002060009054906101000a900473ffffffffffffffffffffffffffffffffffffffff1690506000600a5490506000603c846000815181106118e4576118e3613118565b5b60200260200101516118f69190613662565b90506000611903826111c8565b905061190f848461203d565b6119d183600b83600281111561192857611927612c3d565b5b8154811061193957611938613118565b5b90600052602060002001805461194e90612e76565b80601f016020809104026020016040519081016040528092919081815260200182805461197a90612e76565b80156119c75780601f1061199c576101008083540402835291602001916119c7565b820191906000526020600020905b8154815290600101906020018083116119aa57829003601f168201915b505050505061205b565b600a60008154809291906119e4906133ec565b91905055507f8a269f26b688e110e9cbd887d163dab35cae678fa353a0292de532c0cac1ecdc8133604051611a1a929190613693565b60405180910390a1505050505050565b6000611a3582611760565b611a74576040517f08c379a0000000000000000000000000000000000000000000000000000000008152600401611a6b9061372e565b60405180910390fd5b6000611a7f83610c28565b90508073ffffffffffffffffffffffffffffffffffffffff168473ffffffffffffffffffffffffffffffffffffffff161480611aee57508373ffffffffffffffffffffffffffffffffffffffff16611ad6846107b7565b73ffffffffffffffffffffffffffffffffffffffff16145b80611aff5750611afe818561164e565b5b91505092915050565b8273ffffffffffffffffffffffffffffffffffffffff16611b2882610c28565b73ffffffffffffffffffffffffffffffffffffffff1614611b7e576040517f08c379a0000000000000000000000000000000000000000000000000000000008152600401611b75906137c0565b60405180910390fd5b600073ffffffffffffffffffffffffffffffffffffffff168273ffffffffffffffffffffffffffffffffffffffff1603611bed576040517f08c379a0000000000000000000000000000000000000000000000000000000008152600401611be490613852565b60405180910390fd5b611bf88383836120c8565b611c036000826117d4565b6001600360008573ffffffffffffffffffffffffffffffffffffffff1673ffffffffffffffffffffffffffffffffffffffff1681526020019081526020016000206000828254611c539190613872565b925050819055506001600360008473ffffffffffffffffffffffffffffffffffffffff1673ffffffffffffffffffffffffffffffffffffffff1681526020019081526020016000206000828254611caa91906133b8565b92505081905550816002600083815260200190815260200160002060006101000a81548173ffffffffffffffffffffffffffffffffffffffff021916908373ffffffffffffffffffffffffffffffffffffffff160217905550808273ffffffffffffffffffffffffffffffffffffffff168473ffffffffffffffffffffffffffffffffffffffff167fddf252ad1be2c89b69c2b068fc378daa952ba7f163c4a11628f55a4df523b3ef60405160405180910390a4505050565b600760009054906101000a900473ffffffffffffffffffffffffffffffffffffffff1673ffffffffffffffffffffffffffffffffffffffff163373ffffffffffffffffffffffffffffffffffffffff1614611df3576040517f08c379a0000000000000000000000000000000000000000000000000000000008152600401611dea906138f2565b60405180910390fd5b565b611e00848484611b08565b611e0c848484846120cd565b611e4b576040517f08c379a0000000000000000000000000000000000000000000000000000000008152600401611e4290613984565b60405180910390fd5b50505050565b606060405180602001604052806000815250905090565b6060611e7382611760565b611eb2576040517f08c379a0000000000000000000000000000000000000000000000000000000008152600401611ea990613a16565b60405180910390fd5b6000611ebc611e51565b90506000815111611edc5760405180602001604052806000815250611f07565b80611ee684612254565b604051602001611ef792919061360f565b6040516020818303038152906040525b915050919050565b3373ffffffffffffffffffffffffffffffffffffffff168173ffffffffffffffffffffffffffffffffffffffff1603611f7d576040517f08c379a0000000000000000000000000000000000000000000000000000000008152600401611f7490613a82565b60405180910390fd5b80600860006101000a81548173ffffffffffffffffffffffffffffffffffffffff021916908373ffffffffffffffffffffffffffffffffffffffff1602179055508073ffffffffffffffffffffffffffffffffffffffff16600760009054906101000a900473ffffffffffffffffffffffffffffffffffffffff1673ffffffffffffffffffffffffffffffffffffffff167fed8889f560326eb138920d842192f0eb3dd22b4f139c87a2c57538e05bae127860405160405180910390a350565b6120578282604051806020016040528060008152506123b4565b5050565b61206482611760565b6120a3576040517f08c379a000000000000000000000000000000000000000000000000000000000815260040161209a90613b14565b60405180910390fd5b806006600084815260200190815260200160002090816120c39190613ce0565b505050565b505050565b60006120ee8473ffffffffffffffffffffffffffffffffffffffff1661240f565b15612247578373ffffffffffffffffffffffffffffffffffffffff1663150b7a026121176117cc565b8786866040518563ffffffff1660e01b81526004016121399493929190613e07565b6020604051808303816000875af192505050801561217557506040513d601f19601f820116820180604052508101906121729190613e68565b60015b6121f7573d80600081146121a5576040519150601f19603f3d011682016040523d82523d6000602084013e6121aa565b606091505b5060008151036121ef576040517f08c379a00000000000000000000000000000000000000000000000000000000081526004016121e690613984565b60405180910390fd5b805181602001fd5b63150b7a0260e01b7bffffffffffffffffffffffffffffffffffffffffffffffffffffffff1916817bffffffffffffffffffffffffffffffffffffffffffffffffffffffff19161491505061224c565b600190505b949350505050565b60606000820361229b576040518060400160405280600181526020017f300000000000000000000000000000000000000000000000000000000000000081525090506123af565b600082905060005b600082146122cd5780806122b6906133ec565b915050600a826122c69190613e95565b91506122a3565b60008167ffffffffffffffff8111156122e9576122e86128ec565b5b6040519080825280601f01601f19166020018201604052801561231b5781602001600182028036833780820191505090505b5090505b600085146123a8576001826123349190613872565b9150600a856123439190613662565b603061234f91906133b8565b60f81b81838151811061236557612364613118565b5b60200101907effffffffffffffffffffffffffffffffffffffffffffffffffffffffffffff1916908160001a905350600a856123a19190613e95565b945061231f565b8093505050505b919050565b6123be8383612422565b6123cb60008484846120cd565b61240a576040517f08c379a000000000000000000000000000000000000000000000000000000000815260040161240190613984565b60405180910390fd5b505050565b600080823b905060008111915050919050565b600073ffffffffffffffffffffffffffffffffffffffff168273ffffffffffffffffffffffffffffffffffffffff1603612491576040517f08c379a000000000000000000000000000000000000000000000000000000000815260040161248890613f12565b60405180910390fd5b61249a81611760565b156124da576040517f08c379a00000000000000000000000000000000000000000000000000000000081526004016124d190613f7e565b60405180910390fd5b6124e6600083836120c8565b6001600360008473ffffffffffffffffffffffffffffffffffffffff1673ffffffffffffffffffffffffffffffffffffffff168152602001908152602001600020600082825461253691906133b8565b92505081905550816002600083815260200190815260200160002060006101000a81548173ffffffffffffffffffffffffffffffffffffffff021916908373ffffffffffffffffffffffffffffffffffffffff160217905550808273ffffffffffffffffffffffffffffffffffffffff16600073ffffffffffffffffffffffffffffffffffffffff167fddf252ad1be2c89b69c2b068fc378daa952ba7f163c4a11628f55a4df523b3ef60405160405180910390a45050565b6040518060600160405280600390602082028036833780820191505090505090565b6000604051905090565b600080fd5b600080fd5b60007fffffffff0000000000000000000000000000000000000000000000000000000082169050919050565b61265a81612625565b811461266557600080fd5b50565b60008135905061267781612651565b92915050565b6000602082840312156126935761269261261b565b5b60006126a184828501612668565b91505092915050565b60008115159050919050565b6126bf816126aa565b82525050565b60006020820190506126da60008301846126b6565b92915050565b600081519050919050565b600082825260208201905092915050565b60005b8381101561271a5780820151818401526020810190506126ff565b60008484015250505050565b6000601f19601f8301169050919050565b6000612742826126e0565b61274c81856126eb565b935061275c8185602086016126fc565b61276581612726565b840191505092915050565b6000602082019050818103600083015261278a8184612737565b905092915050565b6000819050919050565b6127a581612792565b81146127b057600080fd5b50565b6000813590506127c28161279c565b92915050565b6000602082840312156127de576127dd61261b565b5b60006127ec848285016127b3565b91505092915050565b600073ffffffffffffffffffffffffffffffffffffffff82169050919050565b6000612820826127f5565b9050919050565b61283081612815565b82525050565b600060208201905061284b6000830184612827565b92915050565b61285a81612815565b811461286557600080fd5b50565b60008135905061287781612851565b92915050565b600080604083850312156128945761289361261b565b5b60006128a285828601612868565b92505060206128b3858286016127b3565b9150509250929050565b6128c681612792565b82525050565b60006020820190506128e160008301846128bd565b92915050565b600080fd5b7f4e487b7100000000000000000000000000000000000000000000000000000000600052604160045260246000fd5b61292482612726565b810181811067ffffffffffffffff82111715612943576129426128ec565b5b80604052505050565b6000612956612611565b9050612962828261291b565b919050565b600067ffffffffffffffff821115612982576129816128ec565b5b602082029050602081019050919050565b600080fd5b60006129ab6129a684612967565b61294c565b905080838252602082019050602084028301858111156129ce576129cd612993565b5b835b818110156129f757806129e388826127b3565b8452602084019350506020810190506129d0565b5050509392505050565b600082601f830112612a1657612a156128e7565b5b8135612a26848260208601612998565b91505092915050565b60008060408385031215612a4657612a4561261b565b5b6000612a54858286016127b3565b925050602083013567ffffffffffffffff811115612a7557612a74612620565b5b612a8185828601612a01565b9150509250929050565b600080600060608486031215612aa457612aa361261b565b5b6000612ab286828701612868565b9350506020612ac386828701612868565b9250506040612ad4868287016127b3565b9150509250925092565b600060039050919050565b600081905092915050565b6000819050919050565b612b0781612792565b82525050565b6000612b198383612afe565b60208301905092915050565b6000602082019050919050565b612b3b81612ade565b612b458184612ae9565b9250612b5082612af4565b8060005b83811015612b81578151612b688782612b0d565b9650612b7383612b25565b925050600181019050612b54565b505050505050565b6000606082019050612b9e6000830184612b32565b92915050565b600060208284031215612bba57612bb961261b565b5b6000612bc884828501612868565b91505092915050565b612bda816126aa565b8114612be557600080fd5b50565b600081359050612bf781612bd1565b92915050565b60008060408385031215612c1457612c1361261b565b5b6000612c2285828601612868565b9250506020612c3385828601612be8565b9150509250929050565b7f4e487b7100000000000000000000000000000000000000000000000000000000600052602160045260246000fd5b60038110612c7d57612c7c612c3d565b5b50565b6000819050612c8e82612c6c565b919050565b6000612c9e82612c80565b9050919050565b612cae81612c93565b82525050565b6000602082019050612cc96000830184612ca5565b92915050565b600080fd5b600067ffffffffffffffff821115612cef57612cee6128ec565b5b612cf882612726565b9050602081019050919050565b82818337600083830152505050565b6000612d27612d2284612cd4565b61294c565b905082815260208101848484011115612d4357612d42612ccf565b5b612d4e848285612d05565b509392505050565b600082601f830112612d6b57612d6a6128e7565b5b8135612d7b848260208601612d14565b91505092915050565b60008060008060808587031215612d9e57612d9d61261b565b5b6000612dac87828801612868565b9450506020612dbd87828801612868565b9350506040612dce878288016127b3565b925050606085013567ffffffffffffffff811115612def57612dee612620565b5b612dfb87828801612d56565b91505092959194509250565b60008060408385031215612e1e57612e1d61261b565b5b6000612e2c85828601612868565b9250506020612e3d85828601612868565b9150509250929050565b7f4e487b7100000000000000000000000000000000000000000000000000000000600052602260045260246000fd5b60006002820490506001821680612e8e57607f821691505b602082108103612ea157612ea0612e47565b5b50919050565b7f4552433732313a20617070726f76656420717565727920666f72206e6f6e657860008201527f697374656e7420746f6b656e0000000000000000000000000000000000000000602082015250565b6000612f03602c836126eb565b9150612f0e82612ea7565b604082019050919050565b60006020820190508181036000830152612f3281612ef6565b9050919050565b7f4552433732313a20617070726f76616c20746f2063757272656e74206f776e6560008201527f7200000000000000000000000000000000000000000000000000000000000000602082015250565b6000612f956021836126eb565b9150612fa082612f39565b604082019050919050565b60006020820190508181036000830152612fc481612f88565b9050919050565b7f4552433732313a20617070726f76652063616c6c6572206973206e6f74206f7760008201527f6e6572206e6f7220617070726f76656420666f7220616c6c0000000000000000602082015250565b60006130276038836126eb565b915061303282612fcb565b604082019050919050565b600060208201905081810360008301526130568161301a565b9050919050565b60006040820190506130726000830185612827565b61307f6020830184612827565b9392505050565b7f4552433732313a207472616e736665722063616c6c6572206973206e6f74206f60008201527f776e6572206e6f7220617070726f766564000000000000000000000000000000602082015250565b60006130e26031836126eb565b91506130ed82613086565b604082019050919050565b60006020820190508181036000830152613111816130d5565b9050919050565b7f4e487b7100000000000000000000000000000000000000000000000000000000600052603260045260246000fd5b600081905092915050565b50565b6000613162600083613147565b915061316d82613152565b600082019050919050565b600061318382613155565b9150819050919050565b7f4552433732313a206f776e657220717565727920666f72206e6f6e657869737460008201527f656e7420746f6b656e0000000000000000000000000000000000000000000000602082015250565b60006131e96029836126eb565b91506131f48261318d565b604082019050919050565b60006020820190508181036000830152613218816131dc565b9050919050565b7f4552433732313a2062616c616e636520717565727920666f7220746865207a6560008201527f726f206164647265737300000000000000000000000000000000000000000000602082015250565b600061327b602a836126eb565b91506132868261321f565b604082019050919050565b600060208201905081810360008301526132aa8161326e565b9050919050565b7f4d7573742062652070726f706f736564206f776e657200000000000000000000600082015250565b60006132e76016836126eb565b91506132f2826132b1565b602082019050919050565b60006020820190508181036000830152613316816132da565b9050919050565b7f4552433732313a20617070726f766520746f2063616c6c657200000000000000600082015250565b60006133536019836126eb565b915061335e8261331d565b602082019050919050565b6000602082019050818103600083015261338281613346565b9050919050565b7f4e487b7100000000000000000000000000000000000000000000000000000000600052601160045260246000fd5b60006133c382612792565b91506133ce83612792565b92508282019050808211156133e6576133e5613389565b5b92915050565b60006133f782612792565b91507fffffffffffffffffffffffffffffffffffffffffffffffffffffffffffffffff820361342957613428613389565b5b600182019050919050565b6000819050919050565b61344781613434565b82525050565b600067ffffffffffffffff82169050919050565b61346a8161344d565b82525050565b600061ffff82169050919050565b61348781613470565b82525050565b600063ffffffff82169050919050565b6134a68161348d565b82525050565b600060a0820190506134c1600083018861343e565b6134ce6020830187613461565b6134db604083018661347e565b6134e8606083018561349d565b6134f5608083018461349d565b9695505050505050565b60008151905061350e8161279c565b92915050565b60006020828403121561352a5761352961261b565b5b6000613538848285016134ff565b91505092915050565b7f45524337323155524953746f726167653a2055524920717565727920666f722060008201527f6e6f6e6578697374656e7420746f6b656e000000000000000000000000000000602082015250565b600061359d6031836126eb565b91506135a882613541565b604082019050919050565b600060208201905081810360008301526135cc81613590565b9050919050565b600081905092915050565b60006135e9826126e0565b6135f381856135d3565b93506136038185602086016126fc565b80840191505092915050565b600061361b82856135de565b915061362782846135de565b91508190509392505050565b7f4e487b7100000000000000000000000000000000000000000000000000000000600052601260045260246000fd5b600061366d82612792565b915061367883612792565b92508261368857613687613633565b5b828206905092915050565b60006040820190506136a86000830185612ca5565b6136b56020830184612827565b9392505050565b7f4552433732313a206f70657261746f7220717565727920666f72206e6f6e657860008201527f697374656e7420746f6b656e0000000000000000000000000000000000000000602082015250565b6000613718602c836126eb565b9150613723826136bc565b604082019050919050565b600060208201905081810360008301526137478161370b565b9050919050565b7f4552433732313a207472616e73666572206f6620746f6b656e2074686174206960008201527f73206e6f74206f776e0000000000000000000000000000000000000000000000602082015250565b60006137aa6029836126eb565b91506137b58261374e565b604082019050919050565b600060208201905081810360008301526137d98161379d565b9050919050565b7f4552433732313a207472616e7366657220746f20746865207a65726f2061646460008201527f7265737300000000000000000000000000000000000000000000000000000000602082015250565b600061383c6024836126eb565b9150613847826137e0565b604082019050919050565b6000602082019050818103600083015261386b8161382f565b9050919050565b600061387d82612792565b915061388883612792565b92508282039050818111156138a05761389f613389565b5b92915050565b7f4f6e6c792063616c6c61626c65206279206f776e657200000000000000000000600082015250565b60006138dc6016836126eb565b91506138e7826138a6565b602082019050919050565b6000602082019050818103600083015261390b816138cf565b9050919050565b7f4552433732313a207472616e7366657220746f206e6f6e20455243373231526560008201527f63656976657220696d706c656d656e7465720000000000000000000000000000602082015250565b600061396e6032836126eb565b915061397982613912565b604082019050919050565b6000602082019050818103600083015261399d81613961565b9050919050565b7f4552433732314d657461646174613a2055524920717565727920666f72206e6f60008201527f6e6578697374656e7420746f6b656e0000000000000000000000000000000000602082015250565b6000613a00602f836126eb565b9150613a0b826139a4565b604082019050919050565b60006020820190508181036000830152613a2f816139f3565b9050919050565b7f43616e6e6f74207472616e7366657220746f2073656c66000000000000000000600082015250565b6000613a6c6017836126eb565b9150613a7782613a36565b602082019050919050565b60006020820190508181036000830152613a9b81613a5f565b9050919050565b7f45524337323155524953746f726167653a2055524920736574206f66206e6f6e60008201527f6578697374656e7420746f6b656e000000000000000000000000000000000000602082015250565b6000613afe602e836126eb565b9150613b0982613aa2565b604082019050919050565b60006020820190508181036000830152613b2d81613af1565b9050919050565b60008190508160005260206000209050919050565b60006020601f8301049050919050565b600082821b905092915050565b600060088302613b967fffffffffffffffffffffffffffffffffffffffffffffffffffffffffffffffff82613b59565b613ba08683613b59565b95508019841693508086168417925050509392505050565b6000819050919050565b6000613bdd613bd8613bd384612792565b613bb8565b612792565b9050919050565b6000819050919050565b613bf783613bc2565b613c0b613c0382613be4565b848454613b66565b825550505050565b600090565b613c20613c13565b613c2b818484613bee565b505050565b5b81811015613c4f57613c44600082613c18565b600181019050613c31565b5050565b601f821115613c9457613c6581613b34565b613c6e84613b49565b81016020851015613c7d578190505b613c91613c8985613b49565b830182613c30565b50505b505050565b600082821c905092915050565b6000613cb760001984600802613c99565b1980831691505092915050565b6000613cd08383613ca6565b9150826002028217905092915050565b613ce9826126e0565b67ffffffffffffffff811115613d0257613d016128ec565b5b613d0c8254612e76565b613d17828285613c53565b600060209050601f831160018114613d4a5760008415613d38578287015190505b613d428582613cc4565b865550613daa565b601f198416613d5886613b34565b60005b82811015613d8057848901518255600182019150602085019450602081019050613d5b565b86831015613d9d5784890151613d99601f891682613ca6565b8355505b6001600288020188555050505b505050505050565b600081519050919050565b600082825260208201905092915050565b6000613dd982613db2565b613de38185613dbd565b9350613df38185602086016126fc565b613dfc81612726565b840191505092915050565b6000608082019050613e1c6000830187612827565b613e296020830186612827565b613e3660408301856128bd565b8181036060830152613e488184613dce565b905095945050505050565b600081519050613e6281612651565b92915050565b600060208284031215613e7e57613e7d61261b565b5b6000613e8c84828501613e53565b91505092915050565b6000613ea082612792565b9150613eab83612792565b925082613ebb57613eba613633565b5b828204905092915050565b7f4552433732313a206d696e7420746f20746865207a65726f2061646472657373600082015250565b6000613efc6020836126eb565b9150613f0782613ec6565b602082019050919050565b60006020820190508181036000830152613f2b81613eef565b9050919050565b7f4552433732313a20746f6b656e20616c7265616479206d696e74656400000000600082015250565b6000613f68601c836126eb565b9150613f7382613f32565b602082019050919050565b60006020820190508181036000830152613f9781613f5b565b905091905056fea264697066735822122043a9c599d2adb753a965be3083d806b6960deca24754a020fe871b82565f8e6064736f6c63430008130033",
  "devdoc": {
    "events": {
      "Approval(address,address,uint256)": {
        "details": "Emitted when `owner` enables `approved` to manage the `tokenId` token."
      },
      "ApprovalForAll(address,address,bool)": {
        "details": "Emitted when `owner` enables or disables (`approved`) `operator` to manage all of its assets."
      },
      "Transfer(address,address,uint256)": {
        "details": "Emitted when `tokenId` token is transferred from `from` to `to`."
      }
    },
    "kind": "dev",
    "methods": {
      "approve(address,uint256)": {
        "details": "See {IERC721-approve}."
      },
      "balanceOf(address)": {
        "details": "See {IERC721-balanceOf}."
      },
      "getApproved(uint256)": {
        "details": "See {IERC721-getApproved}."
      },
      "isApprovedForAll(address,address)": {
        "details": "See {IERC721-isApprovedForAll}."
      },
      "name()": {
        "details": "See {IERC721Metadata-name}."
      },
      "ownerOf(uint256)": {
        "details": "See {IERC721-ownerOf}."
      },
      "safeTransferFrom(address,address,uint256)": {
        "details": "See {IERC721-safeTransferFrom}."
      },
      "safeTransferFrom(address,address,uint256,bytes)": {
        "details": "See {IERC721-safeTransferFrom}."
      },
      "setApprovalForAll(address,bool)": {
        "details": "See {IERC721-setApprovalForAll}."
      },
      "supportsInterface(bytes4)": {
        "details": "See {IERC165-supportsInterface}."
      },
      "symbol()": {
        "details": "See {IERC721Metadata-symbol}."
      },
      "tokenURI(uint256)": {
        "details": "See {IERC721Metadata-tokenURI}."
      },
      "transferFrom(address,address,uint256)": {
        "details": "See {IERC721-transferFrom}."
      }
    },
    "version": 1
  },
  "userdoc": {
    "kind": "user",
    "methods": {
      "acceptOwnership()": {
        "notice": "Allows an ownership transfer to be completed by the recipient."
      },
      "owner()": {
        "notice": "Get the current owner"
      },
      "transferOwnership(address)": {
        "notice": "Allows an owner to begin transferring ownership to a new address, pending."
      }
    },
    "version": 1
  },
  "storageLayout": {
    "storage": [
      {
        "astId": 377,
        "contract": "contracts/RandomIpfsNft.sol:RandomIpfsNft",
        "label": "_name",
        "offset": 0,
        "slot": "0",
        "type": "t_string_storage"
      },
      {
        "astId": 379,
        "contract": "contracts/RandomIpfsNft.sol:RandomIpfsNft",
        "label": "_symbol",
        "offset": 0,
        "slot": "1",
        "type": "t_string_storage"
      },
      {
        "astId": 383,
        "contract": "contracts/RandomIpfsNft.sol:RandomIpfsNft",
        "label": "_owners",
        "offset": 0,
        "slot": "2",
        "type": "t_mapping(t_uint256,t_address)"
      },
      {
        "astId": 387,
        "contract": "contracts/RandomIpfsNft.sol:RandomIpfsNft",
        "label": "_balances",
        "offset": 0,
        "slot": "3",
        "type": "t_mapping(t_address,t_uint256)"
      },
      {
        "astId": 391,
        "contract": "contracts/RandomIpfsNft.sol:RandomIpfsNft",
        "label": "_tokenApprovals",
        "offset": 0,
        "slot": "4",
        "type": "t_mapping(t_uint256,t_address)"
      },
      {
        "astId": 397,
        "contract": "contracts/RandomIpfsNft.sol:RandomIpfsNft",
        "label": "_operatorApprovals",
        "offset": 0,
        "slot": "5",
        "type": "t_mapping(t_address,t_mapping(t_address,t_bool))"
      },
      {
        "astId": 1314,
        "contract": "contracts/RandomIpfsNft.sol:RandomIpfsNft",
        "label": "_tokenURIs",
        "offset": 0,
        "slot": "6",
        "type": "t_mapping(t_uint256,t_string_storage)"
      },
      {
        "astId": 123,
        "contract": "contracts/RandomIpfsNft.sol:RandomIpfsNft",
        "label": "s_owner",
        "offset": 0,
        "slot": "7",
        "type": "t_address"
      },
      {
        "astId": 125,
        "contract": "contracts/RandomIpfsNft.sol:RandomIpfsNft",
        "label": "s_pendingOwner",
        "offset": 0,
        "slot": "8",
        "type": "t_address"
      },
      {
        "astId": 2055,
        "contract": "contracts/RandomIpfsNft.sol:RandomIpfsNft",
        "label": "s_requestIdToSender",
        "offset": 0,
        "slot": "9",
        "type": "t_mapping(t_uint256,t_address)"
      },
      {
        "astId": 2057,
        "contract": "contracts/RandomIpfsNft.sol:RandomIpfsNft",
        "label": "s_tokenCounter",
        "offset": 0,
        "slot": "10",
        "type": "t_uint256"
      },
      {
        "astId": 2063,
        "contract": "contracts/RandomIpfsNft.sol:RandomIpfsNft",
        "label": "s_dogTokenUris",
        "offset": 0,
        "slot": "11",
        "type": "t_array(t_string_storage)dyn_storage"
      }
    ],
    "types": {
      "t_address": {
        "encoding": "inplace",
        "label": "address",
        "numberOfBytes": "20"
      },
      "t_array(t_string_storage)dyn_storage": {
        "base": "t_string_storage",
        "encoding": "dynamic_array",
        "label": "string[]",
        "numberOfBytes": "32"
      },
      "t_bool": {
        "encoding": "inplace",
        "label": "bool",
        "numberOfBytes": "1"
      },
      "t_mapping(t_address,t_bool)": {
        "encoding": "mapping",
        "key": "t_address",
        "label": "mapping(address => bool)",
        "numberOfBytes": "32",
        "value": "t_bool"
      },
      "t_mapping(t_address,t_mapping(t_address,t_bool))": {
        "encoding": "mapping",
        "key": "t_address",
        "label": "mapping(address => mapping(address => bool))",
        "numberOfBytes": "32",
        "value": "t_mapping(t_address,t_bool)"
      },
      "t_mapping(t_address,t_uint256)": {
        "encoding": "mapping",
        "key": "t_address",
        "label": "mapping(address => uint256)",
        "numberOfBytes": "32",
        "value": "t_uint256"
      },
      "t_mapping(t_uint256,t_address)": {
        "encoding": "mapping",
        "key": "t_uint256",
        "label": "mapping(uint256 => address)",
        "numberOfBytes": "32",
        "value": "t_address"
      },
      "t_mapping(t_uint256,t_string_storage)": {
        "encoding": "mapping",
        "key": "t_uint256",
        "label": "mapping(uint256 => string)",
        "numberOfBytes": "32",
        "value": "t_string_storage"
      },
      "t_string_storage": {
        "encoding": "bytes",
        "label": "string",
        "numberOfBytes": "32"
      },
      "t_uint256": {
        "encoding": "inplace",
        "label": "uint256",
        "numberOfBytes": "32"
      }
    }
  }
}